:020000040800F2
:10000000E005002001010008FB0300087F02000852
:10001000F703000849010008070800080000000075
:1000200000000000000000000000000015050008AE
:100030004D01000800000000FD0300080106000853
:100040001B0100081B0100081B0100081B01000820
:100050001B0100081B0100081B0100081B01000810
:100060001B0100081B0100081B0100081B01000800
:100070001B0100081B0100081B0100081B010008F0
:100080001B0100081B0100081B0100081B010008E0
:100090001B0100081B0100081B0100081B010008D0
:1000A0001B0100081B0100081B0100081B010008C0
:1000B0001B0100081B0100081B0100081B010008B0
:1000C0001B0100081B0100081B0100081B010008A0
:1000D0001B0100081B0100087106000861070008E9
:1000E0001B0100081B0100081B010008DFF80CD0F1
:1000F00000F018F800480047F50E0008E005002061
:100100000648804706480047FEE7FEE7FEE7FEE7B1
:10011000FEE7FEE7FEE7FEE7FEE7FEE71106000862
:10012000ED000008064C074D06E0E06840F00103D2
:1001300094E8070098471034AC42F6D3FFF7DAFF93
:10014000CC100008EC10000800BFFEE770472DE956
:10015000F04102460025002600200023002400274D
:1001600091F803C00CF00F0591F803C00CF0100CCF
:10017000BCF1000F03D091F802C04CEA050591F8DC
:1001800000C0BCF1000F31D0146800202BE04FF00C
:10019000010C0CFA00F3B1F800C00CEA03069E4211
:1001A00020D183004FF00F0C0CFA03F7BC4305FA83
:1001B00003FC4CEA040491F803C0BCF1280F06D1FB
:1001C0004FF0010C0CFA00FCC2F814C00AE091F8E0
:1001D00003C0BCF1480F05D14FF0010C0CFA00FC34
:1001E000C2F810C0401C0828D1D31460B1F800C078
:1001F000BCF1FF0F34DD546800202EE000F1080C44
:100200004FF0010808FA0CF3B1F800C00CEA03063D
:100210009E4221D183004FF00F0C0CFA03F7BC4330
:1002200005FA03FC4CEA040491F803C0BCF1280F62
:1002300005D100F1080C08FA0CF8C2F8148091F806
:1002400003C0BCF1480F07D100F1080C4FF00108C2
:1002500008FA0CF8C2F81080401C0828CED354606D
:10026000BDE8F0810246002093680B400BB10120ED
:1002700000E000207047416170470161704700BF96
:10028000FEE770B502460024002500230020958A71
:10029000138B1B0445EA030626F07F4404EA01069B
:1002A0008E4201D1012000E0002070BD21B1028802
:1002B00042F00102028004E002884FF6FE731A4009
:1002C0000280704721B1028842F48072028004E00B
:1002D00002884FF6FF631A400280704721B10288FE
:1002E00042F40072028004E002884FF6FF531A4085
:1002F000028070472DE9F04385B004460D46002684
:10030000B1460427DFF8CC80A6884FF6C0700640BF
:10031000684600F095F8DDF808802F48B8FBF0F04B
:100320001FFA80F946EA0906A68020884FF6FE717A
:100330000840208000262949286888420CD828686F
:100340004000B8FBF0F087B2042F00DA04273E43E8
:1003500009F10100208427E0E8884BF6FF7188420C
:1003600006D1286800EB4000B8FBF0F087B209E046
:10037000286800EBC00101EB0010B8FBF0F087B279
:1003800047F48047C7F30B0008B947F0010747F46B
:10039000004006434FF4967009FB00F04FF47A7169
:1003A00090FBF1F0401C2084A683208840F00100DF
:1003B000208026884FF6F5300640A88869890843D2
:1003C00006432680A88929890843208105B0BDE815
:1003D000F083000000127A0040420F00A086010066
:1003E00012B141F0010102E04FF6FE7319400182A3
:1003F00070470182704700BFFEE7704770470000FA
:1004000029B1064AD2690243044BDA6104E0034A87
:10041000D2698243014BDA6170470000001002404C
:1004200029B1064A92690243044B9A6104E0034AE7
:1004300092698243014B9A617047000000100240AC
:1004400030B500210022002400232D4D6D6805F0F9
:100450000C0121B1042905D0082923D105E0294D3B
:10046000056022E0274D05601FE0254D6D6805F40D
:100470007012234D6D6805F48034022505EB92421D
:100480001CB9214D554305600BE01D4D6D6805F409
:1004900000351DB11C4D5543056002E0194D554313
:1004A000056002E0174D056000BF00BF144D6D6888
:1004B00005F0F0010909154D6B5C0568DD404560EC
:1004C0000F4D6D6805F4E061090A104D6B5C4568DD
:1004D000DD4085600A4D6D6805F46051C90A0B4D19
:1004E0006B5C4568DD40C560054D6D6805F44041B5
:1004F000890B074D6B5CC568B5FBF3F5056130BD35
:100500000010024000127A0000093D0000000020A7
:1005100010000020704710B500F002F810BD000078
:100520000CB50020019000903348006840F4803002
:100530003149086000BF3048006800F40030009086
:100540000198401C0190009818B90198B0F5A06F6F
:10055000F1D12948006800F4003010B1012000906A
:1005600001E0002000900098012843D12348006852
:1005700040F01000214908600846006820F00300A0
:1005800008600846006840F0020008601A484068A9
:10059000194948600846406848600846406840F489
:1005A000806048600846406820F47C104860084637
:1005B000406840F4E81048600846006840F08070E9
:1005C000086000BF0C48006800F000700028F9D0F7
:1005D0000948406820F00300074948600846406821
:1005E00040F00200486000BF0348406800F00C0083
:1005F0000828F9D10CBD0000001002400020024084
:1006000002480068401E0149086070471800002039
:1006100010B51348006840F0010011490860084611
:100620004068104908400E494860084600680E4975
:1006300008400B4908600846006820F480200860E4
:100640000846406820F4FE0048604FF41F008860B0
:10065000FFF761FF4FF000600449086010BD000023
:10066000001002400000FFF8FFFFF6FE08ED00E07A
:1006700010B540F22551334800F096F800285FD0BD
:10068000304800F0BBF8C4B20A2C24D00D2C12D094
:100690004B2C05D04F2C32D101202B49087036E06D
:1006A0002948007818B101202849087002E000208C
:1006B000254908702BE02548007830B122480078A1
:1006C00018B101202249087004E000201E4908707A
:1006D0001E4908701BE01D48007878B11A48007860
:1006E00060B11B48007848B10020184908701649CD
:1006F00008701749087001201649087007E00020AB
:1007000012490870104908701149087000BF00BFF5
:100710001048007840B9104801780078401C0E4A13
:1007200010700E48445403E00C480B4909784454B7
:1007300009480078642802D100200749087000BFEA
:1007400010BD0000004400402200002023000020D3
:10075000240000201D0000201C0000203C00002080
:1007600010B540F225510D4800F01EF8A8B10B4815
:1007700000F044F8C4B20A2C07D009480178007888
:10078000401C074A10700748445405480078642804
:1007900002D100200249087000BF10BD004800408F
:1007A0001C0000203C00002070B5024600240023FD
:1007B0000025002040F66A16B14200D100BFC1F307
:1007C000421501F01F03012606FA03F3012D02D1A1
:1007D0009689334006E0022D02D1168A334001E0AB
:1007E000968A33400C12012606FA04F41688344027
:1007F00013B10CB1012000E0002070BD01468888D3
:10080000C0F30800704700BFFEE702E008C8121FEF
:1008100008C1002AFAD170477047002001E001C1E9
:10082000121F002AFBD1704710B56E2402E000F0C1
:100830002BF804466E2CFAD0204610BD10B50121CD
:100840000420FFF7EDFD01210820FFF7E9FD10204E
:100850000A49C87041F68300088001208870084862
:10086000FFF775FC48200549C8704FF470400880B8
:10087000012088700348FFF76AFC10BD14000020B7
:1008800000080140000C014010B54FF48051AB4806
:10089000FFF7F1FC40F60301A848FFF7EEFC4FF428
:1008A0000041A748FFF7DEFC60B9FA2000F092FA99
:1008B00000BF4FF40041A248FFF7D4FC0028F8D055
:1008C000312010BD4FF480419D48FFF7CBFC60B94B
:1008D000FA2000F07FFA00BF4FF480419848FFF7FC
:1008E000C1FC0028F8D03220EBE74FF400519448C7
:1008F000FFF7B8FC60B9FA2000F06CFA00BF4FF4C3
:1009000000518F48FFF7AEFC0028F8D03320D8E71D
:100910004FF480518A48FFF7A5FC60B9FA2000F037
:1009200059FA00BF4FF480518548FFF79BFC00281F
:10093000F8D04120C5E74FF400618048FFF79BFCE9
:1009400041F203017D48FFF798FC4FF400417C48D9
:10095000FFF788FC60B9FA2000F03CFA00BF4FF4C2
:1009600000417748FFF77EFC0028F8D03420A8E744
:100970004FF480417248FFF775FC60B9FA2000F02F
:1009800029FA00BF4FF480416D48FFF76BFC002847
:10099000F8D0352095E74FF400516948FFF762FC25
:1009A00060B9FA2000F016FA00BF4FF40051644815
:1009B000FFF758FC0028F8D0362082E74FF480512A
:1009C0005F48FFF74FFC60B9FA2000F003FA00BF60
:1009D0004FF480515A48FFF745FC0028F8D04220D8
:1009E0006FE702215548FFF746FC41F601015348E5
:1009F000FFF743FC4FF400415148FFF733FC60B967
:100A0000FA2000F0E7F900BF4FF400414C48FFF72F
:100A100029FC0028F8D0372053E74FF4804148489C
:100A2000FFF720FC60B9FA2000F0D4F900BF4FF4C2
:100A300080414348FFF716FC0028F8D0382040E7F3
:100A40004FF400513E48FFF70DFC60B9FA2000F06A
:100A5000C1F900BF4FF400513948FFF703FC0028EB
:100A6000F8D039202DE74FF480513548FFF7FAFBD5
:100A700060B9FA2000F0AEF900BF4FF48051304861
:100A8000FFF7F0FB0028F8D043201AE701212B489C
:100A9000FFF7F1FB41F602012848FFF7EEFB4FF4A8
:100AA00000412748FFF7DEFB60B9FA2000F092F919
:100AB00000BF4FF400412248FFF7D4FB0028F8D0D4
:100AC0002A20FEE64FF480411D48FFF7CBFB60B9BA
:100AD000FA2000F07FF900BF4FF480411848FFF77B
:100AE000C1FB0028F8D03020EBE64FF40051144849
:100AF000FFF7B8FB60B9FA2000F06CF900BF4FF4C3
:100B000000510F48FFF7AEFB0028F8D02320D8E6AD
:100B10004FF480510A48FFF7A5FB60B9FA2000F0B6
:100B200059F900BF4FF480510548FFF79BFB00289F
:100B3000F8D04420C5E66E20C3E60000000801405E
:100B4000000C014010B5012000F0F2F80A2000F07E
:100B500041F910BD70B506460C46012E03D1E0B236
:100B600040F0800504E004F14000C0B240F0800590
:100B7000284600F0DDF870BD10B501214805FFF7EB
:100B80003FFC01210820FFF74BFCC0200F490880E3
:100B9000032088701C20C8700D48FFF7D8FA002089
:100BA0000C4988804BF6FF70C8800020088148817E
:100BB0004FF480408881084808600848FFF79AFB96
:100BC00001210648FFF772FB10BD00001400002051
:100BD000000C0140CC010020A08601000054004020
:100BE00010B5FFF7C9FF142000F0F4F8332000F02F
:100BF0009FF80A2000F0EEF8322000F099F80A2061
:100C000000F0E8F8282000F093F80A2000F0E2F85D
:100C1000062000F08DF80A2000F0DCF80E2000F02D
:100C200087F80A2000F0D6F8022000F081F80A20A8
:100C300000F0D0F8FFF786FF10BDF8B5FFF782FF90
:100C400000260A270024F02000EA071544F00400DB
:100C50008DF800008DF8014045F004008DF8020089
:100C60008DF8035000BF05E01DF8060000F02AF8DB
:100C7000701CC6B2042EF7DBF8BDF8B5FFF762FFB3
:100C800000240E270025F02000EA071645F00C008E
:100C90008DF8000045F008008DF8010046F00C00CA
:100CA0008DF8020046F008008DF8030000BF05E053
:100CB0001DF8040000F006F8601CC4B2042CF7DB39
:100CC000F8BD000010B5044601211348FFF7FAFAF9
:100CD00000BF12491048FFF7D4FA0028F9D00022CB
:100CE0004E210D48FFF77CFB00BF0D490A48FFF776
:100CF000C8FA0028F9D021460748FFF77AFB00BF61
:100D00000749891C0448FFF7BCFA0028F8D00121E4
:100D10000148FFF7E3FA10BD005400400100030052
:100D20008200070010B50446204600F024F810BDEC
:100D3000F8B50446002504F0F006F02000EA041798
:100D400046F00C008DF8000046F008008DF8010018
:100D500047F00C008DF8020047F008008DF8030002
:100D600000BF05E01DF80500FFF7ACFF681CC5B229
:100D7000042DF7DBF8BDF8B50446002504F0F006B5
:100D8000F02000EA041746F00D008DF8000046F050
:100D900009008DF8010047F00D008DF8020047F0C2
:100DA00009008DF8030000BF05E01DF80500FFF7FE
:100DB00089FF681CC5B2042DF7DBF8BD10B50446E9
:100DC00003E014F8010BFFF7D6FF20780028F8D1D4
:100DD00010BD00000349086000BF024909680029EE
:100DE000FBD170471800002008B501211020FFF743
:100DF00017FB10208DF803004002ADF8000003201F
:100E00008DF8020069461248FFF7A1F94FF400512E
:100E10000F48FFF730FA6420FFF7DCFF4FF4005172
:100E20000B48FFF72AFA6420FFF7D4FF4FF4005174
:100E30000748FFF720FA6420FFF7CCFF4FF400517A
:100E40000348FFF71AFA6420FFF7C4FF08BD00004B
:100E50000010014010B5FFF775FE00210120FFF7DB
:100E600079FE05A0FFF7AAFF00210220FFF772FE1E
:100E700005A0FFF7A3FF10BD53656E6420697420C1
:100E8000746F204553503F00413A2059455320206C
:100E900020423A204E4F000010B5FFF753FE0021CC
:100EA0000120FFF757FE07A0FFF788FF002102206F
:100EB000FFF750FE06A0FFF781FF0A210120FFF790
:100EC00049FE10BD456C6563747269633A20000089
:100ED00057617465723A200070B50023002205E066
:100EE0001446521C0E5D1C465B1C06558C5C002C87
:100EF000F6D170BD644800684FF47A72B0FBF2F12D
:100F0000B1F1807F00D31DE021F07F40401E4FF003
:100F1000E022506150170F22002807DA13071D0E38
:100F20005A4B00F00F04241F1D5503E013071C0E3D
:100F3000574B1C5400BF00204FF0E0229061072067
:100F4000106100BFFFF750FFFFF778FCFFF748FE86
:100F5000FFF7A2FF96E0FFF767FC4E4908700846CE
:100F6000007842285BD006DC232877D02A2874D06A
:100F7000412874D106E0432859D0442858D06E281F
:100F80006DD169E04448007870B944494448FFF79E
:100F9000A3FF0A210220FFF7DDFD00204149087070
:100FA00001203D49087039E03B480078012835D1DF
:100FB0003A493D48FFF790FF00203A490870FFF793
:100FC00049FF00BFFFF730FC32490870084600783F
:100FD000412809D1FFF7B6FD34A0FFF7EFFE4FF42B
:100FE000FA70FFF7F7FE0CE02A480078422808D193
:100FF000FFF7A8FD30A0FFF7E1FE4FF4FA70FFF70E
:10100000E9FE24480078412803D02248007842288D
:10101000D8D1FFF741FF00201F49087031E0FFF7EA
:1010200091FD00201C490870FFF736FF29E028E0F9
:101030002548007838B9FFF720FE012022490870C2
:10104000FFF72AFF04E0FFF7F8FD00201E490870B3
:1010500017E003E001E002E013E012E011E01A48BB
:10106000007868B10B480078FFF75CFE094801780A
:101070000C4802780078401C0A4B187007488154CD
:1010800000BF00BF67E700002800002018ED00E067
:1010900000E400E01E000020210000206801002084
:1010A000A0000020200000200401002053656E6491
:1010B000696E672E2E2E000043616E63656C696E4B
:1010C000672E2E2E000000001F000020EC100008EC
:1010D000000000203C0000000A0800082811000859
:1010E0003C000020A40500001A08000800000000D1
:1010F00001020304010203040607080902040608AA
:1011000000000000000000000000000100000000DE
:101110000000000000A24A040000000000000000DF
:0811200001020304060708099F
:04000005080000ED02
:00000001FF
